:100000000C9434000C943E000C943E000C943E0082
:100010000C943E000C943E000C943E000C943E0068
:100020000C943E000C943E000C943E000C943E0058
:100030000C943E000C943E000C943E000C943E0048
:100040000C943E000C943E000C943E000C943E0038
:100050000C943E000C943E000C943E000C943E0028
:100060000C943E000C943E0011241FBECFEFD8E04C
:10007000DEBFCDBF0E9488010C94FE010C940000ED
:10008000683008F05BC0413051F5813081F018F0E4
:100090008230C9F055C024B181E090E002C0880FE1
:1000A000991F6A95E2F7822B84B981E0089527B100
:1000B00081E090E002C0880F991F6A95E2F7822BD9
:1000C00087B981E008952AB181E090E002C0880FED
:1000D000991F6A95E2F7822B8AB981E00895411150
:1000E00031C0813089F018F08230D9F02DC024B1B0
:1000F00081E090E002C0880F991F6A95E2F7809531
:10010000822384B981E0089527B181E090E002C0A4
:10011000880F991F6A95E2F78095822387B981E05D
:1001200008952AB181E090E002C0880F991F6A9576
:10013000E2F7809582238AB981E0089580E00895EE
:1001400080E0089580E0089580E00895683008F028
:100150005BC0413051F5813081F018F08230C9F038
:1001600055C025B181E090E002C0880F991F6A95C3
:10017000E2F7822B85B981E0089528B181E090E013
:1001800002C0880F991F6A95E2F7822B88B981E037
:1001900008952BB181E090E002C0880F991F6A9505
:1001A000E2F7822B8BB981E00895411131C0813093
:1001B00089F018F08230D9F02DC025B181E090E0AF
:1001C00002C0880F991F6A95E2F78095822385B94E
:1001D00081E0089528B181E090E002C0880F991F66
:1001E0006A95E2F78095822388B981E008952BB162
:1001F00081E090E002C0880F991F6A95E2F7809530
:1002000082238BB981E0089580E0089580E008950D
:1002100080E0089580E0089541E065E082E00E947A
:10022000400041E066E082E00E94400041E064E07E
:1002300082E00E94400041E063E082E00E944000D2
:1002400041E062E082E00E94400041E067E082E03D
:100250000E9440000E94C8010895CF93C82F8233A6
:1002600008F4C0E040E064E082E00E94A60041E0C3
:1002700063E082E00E94A6008C2F0E94E201CF91F1
:100280000895CF93C82F823308F4C0E041E062E0C4
:1002900082E00E94A60040E067E082E00E94A600A3
:1002A0008C2F0E94E001CF910895CF93C82F823305
:1002B00008F4C0E041E064E082E00E94A60040E073
:1002C00063E082E00E94A6008C2F0E94E201CF91A1
:1002D0000895CF93C82F823308F4C0E040E062E075
:1002E00082E00E94A60041E067E082E00E94A60052
:1002F0008C2F0E94E001CF91089540E065E082E0FC
:100300000E94A60040E066E082E00E94A6000895F8
:1003100067E670E080E090E00E94E4010E940C013A
:100320000E94F701C82F0E94F701182F0E94F701C1
:10033000D82FC334C9F028F4C13441F0C23469F075
:1003400024C0C434C1F0C335E9F01FC0812F0E941E
:100350002D018D2F0E944101E3CF812F0E94550175
:100360008D2F0E946901DCCF812F0E9455018D2FB6
:100370000E944101D5CF812F0E942D018D2F0E9417
:100380006901CECF0E947D01CBCF0E947D01C8CFF5
:1003900084B5806884BD84B5816084BD84B5826085
:1003A00084BD84B5806284BD85B5816085BD85B519
:1003B0008D7F85BD85B5846085BD17BC18BC08954B
:1003C00087BD089588BD08950F931F93072F182F99
:1003D000292F33270093C5006093C40088E18093E0
:1003E000C10086E08093C2001F910F910895809113
:1003F000C0008823E4F78091C6000895F894FFCFE9
:00000001FF
