:100000000C944B000C9468000C9468000C946800ED
:100010000C9468000C9468000C9468000C946800C0
:100020000C9468000C9468000C9468000C946800B0
:100030000C9468000C9468000C9468000C946800A0
:100040000C9468000C9468000C9468000C94680090
:100050000C9468000C9468000C9468000C94680080
:100060000C9468000C946800084AD73B3BCE016EA4
:1000700084BCBFFDC12F3D6C74319ABD56833DDAFF
:100080003D00C77F11BED9E4BB4C3E916BAAAABE0E
:10009000000000803F0011241FBECFEFD8E0DEBF7C
:1000A000CDBF11E0A0E0B1E0EEE7FFE002C00590B7
:1000B0000D92A036B107D9F721E0A0E6B1E001C06A
:1000C0001D92A436B207E1F70E9438020C94BD07D6
:1000D0000C940000683008F05BC0413051F581306D
:1000E00081F018F08230C9F055C025B181E090E070
:1000F00002C0880F991F6A95E2F7822B85B981E0CB
:10010000089528B181E090E002C0880F991F6A9598
:10011000E2F7822B88B981E008952BB181E090E06D
:1001200002C0880F991F6A95E2F7822B8BB981E094
:100130000895411131C0813089F018F08230D9F032
:100140002DC025B181E090E002C0880F991F6A950B
:10015000E2F78095822385B981E0089528B181E096
:1001600090E002C0880F991F6A95E2F7809582237C
:1001700088B981E008952BB181E090E002C0880F3A
:10018000991F6A95E2F7809582238BB981E00895E3
:1001900080E0089580E0089580E0089580E008956B
:1001A000813039F018F0823039F009C064B981E04B
:1001B000089567B981E008956AB981E0089580E003
:1001C00008951092B90088E48093B800089584EAF5
:1001D0008093BC008091BC008823E4F78091B90033
:1001E000887F883011F080E0089581E0089584E9E7
:1001F0008093BC0008958093BB0084E88093BC008A
:100200008091BC008823E4F78091B900887F883210
:1002100011F080E0089581E0089584EC8093BC00A3
:100220008091BC008823E4F78091B900887F8035F5
:1002300019F48091BB00089580E0089584E88093CC
:10024000BC008091BC008823E4F78091B900887FCE
:10025000883519F48091BB00089580E00895CF930C
:10026000C82F482F417065E082E00E946A00C1FB00
:10027000442740F964E082E00E946A00C2FB442700
:1002800040F963E082E00E946A00C3FB442740F922
:1002900062E082E00E946A00CF91089541E060E050
:1002A00080E00E946A008FE39FE10197F1F700C0B0
:1002B000000040E060E080E00E946A000895CF9373
:1002C000C82F40E062E080E00E946A0040E061E008
:1002D00080E00E946A008C2F82958F700E942F010F
:1002E0000E944E018C2F0E942F010E944E01CF913F
:1002F0000895CF93C82F41E062E080E00E946A0039
:1003000040E061E080E00E946A008C2F82958F704F
:100310000E942F010E944E018C2F0E942F010E94EB
:100320004E01CF9108952FEF83EF91E0215080404F
:100330009040E1F700C0000082E00E942F010E947F
:100340004E0182E00E942F010E944E018CE00E942B
:100350002F010E944E018CE00E945F0181E00E940B
:100360005F0108950F931F93CF93009731F480E0BE
:100370000DC00E947901CF5F02C08C01C0E0F8017E
:10038000EC0FF11D80818111F4CF81E0CF911F919D
:100390000F910895CF93823038F490E4899F600DD7
:1003A0001124862FC1E002C080E0C0E080580E9486
:1003B0005F018C2FCF910895CF92DF92EF92FF9241
:1003C0000F931F938B019C01672B682B692B49F5B9
:1003D00080E30E94790145C0DC01CB01880F991FA1
:1003E000AA1FBB1F6C017D01CC0CDD1CEE1CFF1C89
:1003F000CC0CDD1CEE1CFF1CC80ED91EEA1EFB1E19
:10040000C901B8012AE030E040E050E00E948707CF
:100410006C0D7D1D8E1D9F1D022F132F242F352F38
:1004200004C061E070E080E090E001151105210555
:10043000310591F62AE030E040E050E00E94870765
:10044000E22EF32E042F152F80E3860F0E947901F0
:100450006E2D7F2D802F912F6130710581059105C3
:1004600049F71F910F91FF90EF90DF90CF90089583
:10047000CF93DF93CDB7DEB728970FB6F894DEBFE2
:100480000FBECDBF6FEF82E00E94D0006FE080E032
:100490000E94D0000E94930167E670E080E090E047
:1004A0000E94AB040E94BA0300E0F12C9E01295F78
:1004B0003F4FAE014B5F5F4FBE016D5F7F4FCE017F
:1004C00001960E94DD036D817E818B819C810E945B
:1004D0004C04E82E4DEC5CEC6CEC7DE38F81988550
:1004E0000E947B04182F81E00E945F0160E080E0A1
:1004F0000E94CA0180E091E00E94B20160E081E0C8
:100500000E94CA0186E091E00E94B2018AE08E0D4D
:10051000853108F4C9C06AE570E08E2D0E2C000C00
:10052000990B0E943704F82E1B300CF44AC06AE580
:1005300070E0812F110F990B0E943704082F1E14B1
:1005400004F565E080E00E94CA018DE091E00E9420
:10055000B20181E40E94BE04602F70E080E090E070
:100560000E9447062AE939E949E95FE30E94A405A8
:100570000E941606862F0E94BE048F2D0E94BE0484
:10058000D6C065E080E00E94CA0187E191E00E9448
:10059000B20182E40E94BE04602F70E080E090E02F
:1005A0000E9447062AE939E949E95FE30E94A40568
:1005B0000E941606862F0E94BE048F2D0E94BE0444
:1005C000B6C0163F0CF04AC06AE570E0812F110FEB
:1005D000990B0E943704082F1E1404F565E080E093
:1005E0000E94CA0181E291E00E94B20181E40E946E
:1005F000BE048F2D0E94BE04602F70E080E090E06A
:100600000E9447062AE939E949E95FE30E94A40507
:100610000E941606862F0E94BE0489C065E080E015
:100620000E94CA018AE291E00E94B20182E40E9423
:10063000BE048F2D0E94BE04602F70E080E090E029
:100640000E9447062AE939E949E95FE30E94A405C7
:100650000E941606862F0E94BE0469C01E1494F4E0
:1006600065E080E00E94CA0183E391E00E94B2014C
:1006700081E40E94BE048F2D0E94BE048F2D0E9433
:10068000BE0455C065E080E00E94CA018BE391E0A2
:100690000E94B20182E40E94BE048F2D0E94BE041B
:1006A0008F2D0E94BE0443C01B30D4F06AE570E079
:1006B000812F110F990B0E943704082F65E080E00D
:1006C0000E94CA0184E491E00E94B20183E40E9486
:1006D000BE04802F0E94BE04802F0E94BE0427C04B
:1006E000163FD4F46AE570E0812F110F990B0E9438
:1006F0003704082F65E080E00E94CA018FE491E092
:100700000E94B20184E40E94BE04802F0E94BE04B5
:10071000802F0E94BE040BC065E080E00E94CA01E9
:1007200089E591E00E94B20183E50E94BE0466E083
:1007300081E00E94CA018F2DF01608F4802F24E674
:10074000829FC00111246FEF70E00E94730770E078
:1007500080E090E00E94DC018EE591E00E94B20111
:100760008FEF91EE24E0815090402040E1F700C0EF
:1007700000009CCE0E94E1000E94E7008BE60E94F0
:10078000FB0080E00E94FB000E94F7002FEF80E753
:1007900092E0215080409040E1F700C000000E94AC
:1007A000E70080ED0E94FB008BE10E94FB0088E0E7
:1007B0000E94FB000E94F7000895AF92BF92CF9273
:1007C000DF92EF92FF920F931F93CF93DF935C0121
:1007D0006B017A0189010E94E70080ED0E94FB0015
:1007E0008BE30E94FB000E94E70081ED0E94FB006A
:1007F0000E940D01C82FD0E0DC2FCC270E941E01E3
:10080000C82BF501D183C0830E940D01C82FD0E011
:10081000DC2FCC270E941E01C82BF601D183C08398
:100820000E940D01C82FD0E0DC2FCC270E941E01B2
:10083000C82BF701D183C0830E940D010E940D01D6
:10084000C82FD0E0DC2FCC270E941E01C82BF80156
:10085000D183C0830E94F700DF91CF911F910F9148
:10086000FF90EF90DF90CF90BF90AF9008959923C5
:100870001CF49195819591099C012A5031094DEC08
:10088000429FC001439F900D11246A5071090E943C
:10089000730782E3860F0895CF92DF92EF92FF9263
:1008A000CF93DF93EC01072E000C880B990B0E946D
:1008B00047066B017C01BE01DD0F880B990B0E947E
:1008C0004706A70196010E94450520E030E044E379
:1008D00053E40E9402072BED3FE049E450E40E94FC
:1008E000A4050E941606862FDF91CF91FF90EF900E
:1008F000DF90CF900895CF92DF92EF92FF926A013E
:100900007B01BC01990F880B990B0E94470620E0E0
:1009100030E043E852E40E94A405A70196010E943A
:100920000207209160013091610140916201509174
:1009300063010E94C604609360017093610180931B
:100940006201909363010E941606862FFF90EF903C
:10095000DF90CF9008950F931F9326E02093C2005D
:10096000072F182F292F33270093C5006093C40049
:1009700088E18093C1001F910F9108959091C0006C
:1009800095FFFCCF8093C60008955058BB27AA2737
:100990000E94DD040C94C0060E94B20638F00E944A
:1009A000B90620F039F49F3F19F426F40C94880618
:1009B0000EF4E095E7FB0C948206E92F0E94D10625
:1009C00058F3BA17620773078407950720F079F484
:1009D000A6F50C94F3060EF4E0950B2EBA2FA02D7D
:1009E0000B01B90190010C01CA01A0011124FF27DC
:1009F000591B99F0593F50F4503E68F11A16F040D7
:100A0000A22F232F342F4427585FF3CF46953795D5
:100A10002795A795F0405395C9F77EF41F16BA0B9A
:100A2000620B730B840BBAF09150A1F0FF0FBB1F48
:100A3000661F771F881FC2F70EC0BA0F621F731F91
:100A4000841F48F4879577956795B795F7959E3FEE
:100A500008F0B0CF9395880F08F09927EE0F97957F
:100A6000879508950E94B20660F080E891E009F44D
:100A70009EEF0E94B90628F040E851E071F45EEF65
:100A80000CC00C9488060C94F306E92FE0780E94C1
:100A9000D10640F3092E052AB1F326173707480778
:100AA000590738F00E2E07F8E02569F0E025E064DC
:100AB0000AC0EF6307F8009407FADB01B9019D0152
:100AC000DC01CA01AD01EF930E94BB050E94C00684
:100AD0000E9475055F91552339F02BED3FE049E405
:100AE00050FD49EC0C94C6040895DF93DD27B92F1F
:100AF000BF7740E85FE31616170648075B0718F450
:100B0000D92F0E94FA069F938F937F936F930E9431
:100B10006F07E8E6F0E00E948B060E94C0062F9166
:100B20003F914F915F910E941507DD2351F090583E
:100B3000A2EA2AED3FE049EC5FE3D0785D270E940E
:100B4000DD04DF910C94C0060E94B8050C94C00629
:100B50000E94B90658F00E94B20640F029F45F3FA7
:100B600029F00C94820651110C94F4060C9488061A
:100B70000E94D10668F39923B1F3552391F3951B95
:100B8000550BBB27AA2762177307840738F09F5FAE
:100B90005F4F220F331F441FAA1FA9F335D00E2E1B
:100BA0003AF0E0E832D091505040E695001CCAF788
:100BB0002BD0FE2F29D0660F771F881FBB1F26174B
:100BC00037074807AB07B0E809F0BB0B802DBF0122
:100BD000FF2793585F4F3AF09E3F510578F00C94F1
:100BE00082060C94F4065F3FE4F3983ED4F38695B6
:100BF00077956795B795F7959F5FC9F7880F911D12
:100C00009695879597F90895E1E0660F771F881FFD
:100C1000BB1F621773078407BA0720F0621B730BB0
:100C2000840BBA0BEE1F88F7E09508950E94D90651
:100C300088F09F5798F0B92F9927B751B0F0E1F09D
:100C4000660F771F881F991F1AF0BA95C9F714C04D
:100C5000B13091F00E94F306B1E008950C94F306D0
:100C6000672F782F8827B85F39F0B93FCCF3869586
:100C700077956795B395D9F73EF4909580957095E3
:100C800061957F4F8F4F9F4F0895E89409C097FB60
:100C90003EF490958095709561957F4F8F4F9F4F53
:100CA0009923A9F0F92F96E9BB279395F695879597
:100CB00077956795B795F111F8CFFAF4BB0F11F45A
:100CC00060FF1BC06F5F7F4F8F4F9F4F16C0882301
:100CD00011F096E911C0772321F09EE8872F762F37
:100CE00005C0662371F096E8862F70E060E02AF078
:100CF0009A95660F771F881FDAF7880F9695879564
:100D000097F9089597F99F6780E870E060E008958B
:100D10009FEF80EC0895DF93CF931F930F93FF9283
:100D2000EF92DF927B018C01689406C0DA2EEF010E
:100D30000E941507FE01E894A591259135914591F2
:100D40005591A6F3EF010E94DD04FE019701A80171
:100D5000DA9469F7DF90EF90FF900F911F91CF9198
:100D6000DF91089500240A9416161706180609063E
:100D7000089500240A941216130614060506089511
:100D8000092E0394000C11F4882352F0BB0F40F499
:100D9000BF2B11F460FF04C06F5F7F4F8F4F9F4FD9
:100DA000089557FD9058440F551F59F05F3F71F05B
:100DB0004795880F97FB991F61F09F3F79F08795C2
:100DC0000895121613061406551FF2CF4695F1DF4B
:100DD00008C0161617061806991FF1CF86957105DB
:100DE000610508940895E894BB2766277727CB010F
:100DF00097F908959B01AC0160E070E080E89FE303
:100E00000C94A4050E9415070C94C0060E94B2061B
:100E100038F00E94B90620F0952311F00C94820658
:100E20000C94880611240C94F4060E94D10670F3E9
:100E3000959FC1F3950F50E0551F629FF001729F7F
:100E4000BB27F00DB11D639FAA27F00DB11DAA1F8E
:100E5000649F6627B00DA11D661F829F2227B00DDB
:100E6000A11D621F739FB00DA11D621F839FA00D66
:100E7000611D221F749F3327A00D611D231F849FB6
:100E8000600D211D822F762F6A2F11249F5750400D
:100E90009AF0F1F088234AF0EE0FFF1FBB1F661F88
:100EA000771F881F91505040A9F79E3F510580F051
:100EB0000C9482060C94F4065F3FE4F3983ED4F35E
:100EC000869577956795B795F795E7959F5FC1F7F5
:100ED000FE2B880F911D9695879597F908959B0194
:100EE000AC010C94020797FB072E16F4009407D070
:100EF00077FD09D00E94A90707FC05D03EF4909524
:100F000081959F4F0895709561957F4F0895A1E257
:100F10001A2EAA1BBB1BFD010DC0AA1FBB1FEE1F73
:100F2000FF1FA217B307E407F50720F0A21BB30BBE
:100F3000E40BF50B661F771F881F991F1A9469F73A
:100F400060957095809590959B01AC01BD01CF0196
:100F50000895AA1BBB1B51E107C0AA1FBB1FA61700
:100F6000B70710F0A61BB70B881F991F5A95A9F752
:0E0F700080959095BC01CD010895F894FFCFB7
:100F7E00504154483A0053504545443A0046776430
:100F8E0020726967687400427764207269676874BA
:100F9E0000467764206C65667400427764206C6549
:100FAE00667400466F7277617264004261636B779C
:100FBE00617264005269676874207475726E004CB9
:100FCE00656674207475726E0053544F5000250080
:00000001FF
