:100000000C9434000C9446000C9446000C9446006A
:100010000C9446000C9446000C9446000C94460048
:100020000C9446000C9446000C9433020C94460049
:100030000C9446000C941C020C9446000C94460050
:100040000C9446000C9446000C9446000C94460018
:100050000C9446000C9446000C9446000C94460008
:100060000C9446000C94460011241FBECFEFD8E03C
:10007000DEBFCDBF21E0A0E0B1E001C01D92A13103
:10008000B207E1F70E9498010C9449040C94000017
:10009000683008F05BC0413051F5813081F018F0D4
:1000A0008230C9F055C024B181E090E002C0880FD1
:1000B000991F6A95E2F7822B84B981E0089527B1F0
:1000C00081E090E002C0880F991F6A95E2F7822BC9
:1000D00087B981E008952AB181E090E002C0880FDD
:1000E000991F6A95E2F7822B8AB981E00895411140
:1000F00031C0813089F018F08230D9F02DC024B1A0
:1001000081E090E002C0880F991F6A95E2F7809520
:10011000822384B981E0089527B181E090E002C094
:10012000880F991F6A95E2F78095822387B981E04D
:1001300008952AB181E090E002C0880F991F6A9566
:10014000E2F7809582238AB981E0089580E00895DE
:1001500080E0089580E0089580E00895683008F018
:100160005BC0413051F5813081F018F08230C9F028
:1001700055C025B181E090E002C0880F991F6A95B3
:10018000E2F7822B85B981E0089528B181E090E003
:1001900002C0880F991F6A95E2F7822B88B981E027
:1001A00008952BB181E090E002C0880F991F6A95F5
:1001B000E2F7822B8BB981E00895411131C0813083
:1001C00089F018F08230D9F02DC025B181E090E09F
:1001D00002C0880F991F6A95E2F78095822385B93E
:1001E00081E0089528B181E090E002C0880F991F56
:1001F0006A95E2F78095822388B981E008952BB152
:1002000081E090E002C0880F991F6A95E2F780951F
:1002100082238BB981E0089580E0089580E00895FD
:1002200080E0089580E0089541E065E082E00E946A
:10023000480041E066E082E00E94480041E064E05E
:1002400082E00E94480041E063E082E00E944800B2
:1002500041E062E082E00E94480041E067E082E025
:100260000E9448000E94E2010895CF93C82F823374
:1002700008F4C0E040E064E082E00E94AE0041E0AB
:1002800063E082E00E94AE008C2F0E94FC01CF91BF
:100290000895CF93C82F823308F4C0E041E062E0B4
:1002A00082E00E94AE0040E067E082E00E94AE0083
:1002B0008C2F0E94FA01CF910895CF93C82F8233DB
:1002C00008F4C0E041E064E082E00E94AE0040E05B
:1002D00063E082E00E94AE008C2F0E94FC01CF916F
:1002E0000895CF93C82F823308F4C0E040E062E065
:1002F00082E00E94AE0041E067E082E00E94AE0032
:100300008C2F0E94FA01CF91089540E065E082E0D1
:100310000E94AE0040E066E082E00E94AE000895D8
:100320008FB380688FBB08958FB38F778FBB08958D
:1003300067E670E080E090E00E947C020E94140179
:100340000E94960282E30E94350182E30E944901E5
:100350000E94A3020E948F02C82F0E948F02182FB2
:100360000E948F02D82FC334C9F028F4C13441F061
:10037000C23469F024C0C434C1F0C335E9F01FC0F1
:10038000812F0E9435018D2F0E944901E1CF812FDD
:100390000E945D018D2F0E947101DACF812F0E9492
:1003A0005D018D2F0E944901D3CF812F0E9435011D
:1003B0008D2F0E947101CCCF0E948501C9CF0E9470
:1003C0008501C6CF84B5806884BD84B5816084BD55
:1003D00084B5826084BD84B5806284BD85B581604A
:1003E00085BD85B58D7F85BD85B5846085BD17BC10
:1003F00018BC089587BD089588BD08950E94940192
:100400001092000110928000E1E8F0E0108210925A
:100410008500109284008081806480838081816067
:100420008083EFE6F0E0808180628083808181605C
:1004300080830E94900108951F920F920FB60F9231
:1004400011248F939F938091070190910801019649
:1004500090930801809307019F918F910F900FBE99
:100460000F901F9018951F920F920FB60F921124A4
:100470008F939F93EF93FF9380910001811112C09E
:1004800080918600909187009093060180930501EA
:10049000E1E8F0E080818F7B808310920801109268
:1004A00007011CC0809100018130C1F48091860059
:1004B000909187009093100180930F018091070124
:1004C0009091080190930E0180930D01EFE6F0E00A
:1004D00080818F7D808380818E7F808380910001E9
:1004E0008F5F80930001FF91EF919F918F910F900B
:1004F0000FBE0F901F9018950F931F93072F182F63
:10050000292F33270093C5006093C40088E18093AE
:10051000C10086E08093C2001F910F9108958091E1
:10052000C0008823E4F78091C600089540E060E0B1
:1005300080E00E94480041E061E080E00E944800C5
:100540000E94FE01089541E061E080E00E94AE005B
:1005500025E32A95F1F7000040E061E080E00E9489
:10056000AE0080910001823009F069C01092000154
:1005700020910F013091100160910D0170910E01D9
:10058000CB01A0E0B0E0DC0199278827820F931F00
:10059000A11DB11D2091050130910601BC01CD01C5
:1005A000621B730B810991096093090170930A0121
:1005B00080930B0190930C010E9497032DEC3CE378
:1005C00049E654E40E9425036093010170930201FF
:1005D000809303019093040120E030E040E251E475
:1005E0000E9420031816A4F041E062E081E00E941E
:1005F000AE008FEF0E9471018FEF0E945D018FEFBF
:1006000099E628E1815090402040E1F700C00000C9
:10061000109208011092070110920E0110920D0124
:10062000E1E8F0E0808180648083EFE6F0E08081A3
:100630008062808380818160808381E286BB0895AF
:100640000E94D40308F481E008950E9439030C94B9
:100650000F040E94080458F00E94010440F029F49D
:100660005F3F29F00C94F80351110C9443040C944F
:10067000FE030E94200468F39923B1F3552391F3FC
:10068000951B550BBB27AA2762177307840738F001
:100690009F5F5F4F220F331F441FAA1FA9F335D05E
:1006A0000E2E3AF0E0E832D091505040E695001C12
:1006B000CAF72BD0FE2F29D0660F771F881FBB1FCC
:1006C000261737074807AB07B0E809F0BB0B802DAA
:1006D000BF01FF2793585F4F3AF09E3F510578F0D6
:1006E0000C94F8030C9443045F3FE4F3983ED4F376
:1006F000869577956795B795F7959F5FC9F7880FAA
:10070000911D9695879597F90895E1E0660F771FFB
:10071000881FBB1F621773078407BA0720F0621B8C
:10072000730B840BBA0BEE1F88F7E0950895E894DD
:1007300009C097FB3EF490958095709561957F4F29
:100740008F4F9F4F9923A9F0F92F96E9BB279395D7
:10075000F695879577956795B795F111F8CFFAF4E7
:10076000BB0F11F460FF1BC06F5F7F4F8F4F9F4F18
:1007700016C0882311F096E911C0772321F09EE876
:10078000872F762F05C0662371F096E8862F70E0DC
:1007900060E02AF09A95660F771F881FDAF7880FB6
:1007A0009695879597F90895990F0008550FAA0B0C
:1007B000E0E8FEEF16161706E807F907C0F0121674
:1007C0001306E407F50798F0621B730B840B950B77
:1007D00039F40A2661F0232B242B252B21F40895CC
:1007E0000A2609F4A140A6958FEF811D811D089569
:1007F00097F99F6780E870E060E008959FEF80ECD4
:10080000089500240A941616170618060906089576
:1008100000240A9412161306140605060895092EDC
:100820000394000C11F4882352F0BB0F40F4BF2B4B
:1008300011F460FF04C06F5F7F4F8F4F9F4F08958B
:1008400057FD9058440F551F59F05F3F71F0479581
:10085000880F97FB991F61F09F3F79F08795089566
:10086000121613061406551FF2CF4695F1DF08C085
:10087000161617061806991FF1CF869571056105A2
:1008800008940895E894BB2766277727CB0197F94A
:060890000895F894FFCF6B
:00000001FF
